:0400000006EF00F017
:0C00080001ED04F013EE88F0F1EF0FF0B2
:1008000000000600FACF41F0FBCF42F0E9CF43F001
:10081000EACF44F0E1CF45F0E2CF46F0D9CF47F040
:10082000DACF48F0F3CF49F0F4CF4AF001C04BF0F3
:100830000CC04CF015EEC4F0F29EF2A222EF04F0D0
:1008400024EF04F027EF04F0F2926EEC10F0F2A423
:100850002CEF04F02EEF04F06FEF05F0F294000E91
:10086000D76E000ED66E5DEC0DF084C33AF03A50B0
:100870006B0D6D0EF3243B6E010EF4203C6E3BC0FD
:1008800086F33CC087F323EE86F000EE02F0DE50E4
:10089000E926DD50EA22EE04D8A451EF04F053EF2C
:1008A00004F0BFEF04F023EE86F000EE09F0DE5016
:1008B000E926DD50EA22E0CFEFFF23EE86F000EEDE
:1008C00008F0DE50E926DD50EA22D8CFEFFF23EE14
:1008D00086F000EE07F0DE50E926DD50EA22E8CF90
:1008E000EFFF23EE86F000EE6AF0DE50E926DD50E1
:1008F000EA22EF6A23EE86F000EE02F0DE50E926EF
:10090000DD50EA22EF6AB7EF04F023EE86F000EE46
:100910006AF0DE50E926DD50EA22EF503A6E3A5096
:10092000030DF3CF3BF0F4CF3CF023EE86F0DECFA7
:100930003DF0DDCF3EF03B503D243F6E3C503E202D
:10094000406E0A0E3F24D96E000E4020DA6EFDCFB5
:10095000DEFFFECFDEFFFFCFDEFF23EE86F000EEF0
:100960006AF0DE50E926DD50EA22EF2A0600FC504C
:10097000D8A4BDEF04F0BFEF04F085EF04F0EEEC77
:1009800010F084C33AF03A506B0D6D0EF3243B6EB9
:10099000010EF4203C6E3BC086F33CC087F323EE8F
:1009A00086F000EE02F0DE50E926DD50EA22EF503C
:1009B000D8A4DDEF04F0DFEF04F06FEF05F0FC6A80
:1009C00023EE86F000EE6AF0DE50E926DD50EA22E2
:1009D000EF50D8B4EEEF04F0F0EF04F053EF05F071
:1009E00023EE86F000EE09F0DE50E926DD50EA2223
:1009F000EF50E06E23EE86F000EE08F0DE50E926C0
:100A0000DD50EA22EF50D86E23EE86F000EE07F0BC
:100A1000DE50E926DD50EA22EF503A6E3A500500EA
:100A200023EE86F000EE6AF0DE50E926DD50EA2281
:100A3000EF0623EE86F000EE6AF0DE50E926DD5088
:100A4000EA22EF503A6E3A50030DF3CF3BF0F4CF69
:100A50003CF023EE86F0DECF3DF0DDCF3EF03B50A4
:100A60003D243F6E3C503E20406E0A0E3F24D96E1E
:100A7000000E4020DA6EDECFFDFFDECFFEFFDDCFC1
:100A8000FFFF23EE86F000EE6AF0DE50E926DD502F
:100A9000EA22EF50D8A44FEF05F051EF05F00FEF29
:100AA00005F065EF05F0050023EE86F000EE03F09B
:100AB000DE50E926DD50EA22EECF3AF0EDCF3BF0F2
:100AC0003AC0FDFF3BC0FEFFFF6A23EE86F000EE5A
:100AD00002F0DE50E926DD50EA22010EEF6EF28EC2
:100AE0004CC00CF04BC001F04AC0F4FF49C0F3FF0A
:100AF00048C0DAFF47C0D9FF46C0E2FF45C0E1FF6A
:100B000044C0EAFF43C0E9FF42C0FBFF41C0FAFF17
:100B10001100F29E0001D551D96EDA6ADF50D8B4C7
:100B200094EF05F096EF05F09DEF05F0D551D96EE5
:100B3000DA6ADF6AF28EFCEF06F023EE84F0D5511C
:100B4000E96EEA6A050EE926EF50D66FD551D62533
:100B5000E96EEA6A010EE926DFCFEFFFD551D96EC3
:100B6000DA6A050ED926D551E96EEA6A050EE9263C
:100B7000EF50D66FD629030BDF6E84C3D6F0D65163
:100B80006B0D6D0EF324D76F010EF420D86FD7C014
:100B900086F3D8C087F323EE86F000EE02F0DE5035
:100BA000E926DD50EA22EE04D8A4D9EF05F0DBEF08
:100BB00005F049EF06F023EE86F000EE09F0DE5076
:100BC000E926DD50EA22E0CFEFFF23EE86F000EECB
:100BD00008F0DE50E926DD50EA22D8CFEFFF23EE01
:100BE00086F000EE07F0DE50E926DD50EA22E8CF7D
:100BF000EFFF23EE86F000EE6AF0DE50E926DD50CE
:100C0000EA22EF6A23EE86F000EE02F0DE50E926DB
:100C1000DD50EA22030EEF6E41EF06F023EE86F080
:100C200000EE6AF0DE50E926DD50EA22EF500001C6
:100C3000D66FD651030DF3CFD7F0F4CFD8F023EE13
:100C400086F0DECFD9F0DDCFDAF0D751D925DB6FD2
:100C5000D851DA21DC6F0A0EDB25D96E000EDC21BB
:100C6000DA6EFDCFDEFFFECFDEFFFFCFDEFF23EE2D
:100C700086F000EE6AF0DE50E926DD50EA22EF2A27
:100C80000600FC50D8A447EF06F049EF06F00EEF3F
:100C900006F0EEEC10F084C3D6F00001D6516B0DD7
:100CA0006D0EF324D76F010EF420D86FD7C086F3F2
:100CB000D8C087F323EE86F000EE02F0DE50E9267E
:100CC000DD50EA22EF50D8A468EF06F06AEF06F094
:100CD000FBEF06F0FC6A23EE86F000EE6AF0DE50D1
:100CE000E926DD50EA22EF50D8B479EF06F07BEF29
:100CF00006F0DFEF06F023EE86F000EE09F0DE509E
:100D0000E926DD50EA22EF50E06E23EE86F000EE99
:100D100008F0DE50E926DD50EA22EF50D86E23EECF
:100D200086F000EE07F0DE50E926DD50EA22EF50B3
:100D3000D66FD651050023EE86F000EE6AF0DE5045
:100D4000E926DD50EA22EF0623EE86F000EE6AF097
:100D5000DE50E926DD50EA22EF500001D66FD65171
:100D6000030DF3CFD7F0F4CFD8F023EE86F0DECF2B
:100D7000D9F0DDCFDAF0D751D925DB6FD851DA21A0
:100D8000DC6F0A0EDB25D96E000EDC21DA6EDECFB9
:100D9000FDFFDECFFEFFDDCFFFFF23EE86F000EE8E
:100DA0006AF0DE50E926DD50EA22EF50D8A4DBEFEE
:100DB00006F0DDEF06F09AEF06F0F1EF06F0050021
:100DC00023EE86F000EE03F0DE50E926DD50EA2245
:100DD000EECFD6F0EDCFD7F0D6C0FDFFD7C0FEFFE7
:100DE000FF6A23EE86F000EE02F0DE50E926DD50C9
:100DF000EA22010EEF6EF28E1200F29E0001C8513F
:100E0000D96EDA6ADE06000EDD5AC851D96EDA6A8A
:100E1000010EDBBE10EF07F00EEF07F06EEF08F0EB
:100E200023EE84F0C851E96EEA6A060EE926EF5017
:100E3000C96FC851C925E96EEA6A020EE926DFCFFB
:100E4000EFFFC851D96EDA6A060ED926C851E96E8D
:100E5000EA6A060EE926EF50C96FC929030BDF6E57
:100E600084C3C9F0C9516B0D6D0EF324CA6F010E16
:100E7000F420CB6FCAC086F3CBC087F323EE86F095
:100E800000EE02F0DE50E926DD50EA22EE04D8A49E
:100E90004CEF07F04EEF07F0BCEF07F023EE86F0C3
:100EA00000EE09F0DE50E926DD50EA22E0CFEFFF48
:100EB00023EE86F000EE08F0DE50E926DD50EA224F
:100EC000D8CFEFFF23EE86F000EE07F0DE50E926E4
:100ED000DD50EA22E8CFEFFF23EE86F000EE6AF065
:100EE000DE50E926DD50EA22EF6A23EE86F000EEBE
:100EF00002F0DE50E926DD50EA22030EEF6EB4EF79
:100F000007F023EE86F000EE6AF0DE50E926DD50B1
:100F1000EA22EF500001C96FC951030DF3CFCAF0A7
:100F2000F4CFCBF023EE86F0DECFCCF0DDCFCDF0EA
:100F3000CA51CC25CE6FCB51CD21CF6F0A0ECE2515
:100F4000D96E000ECF21DA6EFDCFDEFFFECFDEFFC1
:100F5000FFCFDEFF23EE86F000EE6AF0DE50E926DA
:100F6000DD50EA22EF2A0600FC50D8A4BAEF07F0C1
:100F7000BCEF07F081EF07F0EEEC10F084C3C9F08E
:100F80000001C9516B0D6D0EF324CA6F010EF420E0
:100F9000CB6FCAC086F3CBC087F323EE86F000EE9A
:100FA00002F0DE50E926DD50EA22EF50D8A4DBEF54
:100FB00007F0DDEF07F06EEF08F0FC6A23EE86F035
:100FC00000EE6AF0DE50E926DD50EA22EF50D8B498
:100FD000ECEF07F0EEEF07F052EF08F023EE86F0AB
:100FE00000EE09F0DE50E926DD50EA22EF50E06E17
:100FF00023EE86F000EE08F0DE50E926DD50EA220E
:10100000EF50D86E23EE86F000EE07F0DE50E926B2
:10101000DD50EA22EF50C96FC951050023EE86F07A
:1010200000EE6AF0DE50E926DD50EA22EF0623EEFC
:1010300086F000EE6AF0DE50E926DD50EA22EF503D
:101040000001C96FC951030DF3CFCAF0F4CFCBF043
:1010500023EE86F0DECFCCF0DDCFCDF0CA51CC252B
:10106000CE6FCB51CD21CF6F0A0ECE25D96E000E9B
:10107000CF21DA6EDECFFDFFDECFFEFFDDCFFFFF3B
:1010800023EE86F000EE6AF0DE50E926DD50EA221B
:10109000EF50D8A44EEF08F050EF08F00DEF08F035
:1010A00064EF08F0050023EE86F000EE03F0DE505A
:1010B000E926DD50EA22EECFC9F0EDCFCAF0C9C073
:1010C000FDFFCAC0FEFFFF6A23EE86F000EE02F0CD
:1010D000DE50E926DD50EA22010EEF6EF28E12009C
:1010E000F29E84C326F1010126516B0D6D0EF3248F
:1010F000276F010EF420286F27C186F328C187F3DC
:1011000023EE86F000EE02F0DE50E926DD50EA2202
:10111000EE04D8A48EEF08F090EF08F0FEEF08F090
:1011200023EE86F000EE09F0DE50E926DD50EA22DB
:10113000E0CFEFFF23EE86F000EE08F0DE50E92668
:10114000DD50EA22D8CFEFFF23EE86F000EE07F065
:10115000DE50E926DD50EA22E8CFEFFF23EE86F0ED
:1011600000EE6AF0DE50E926DD50EA22EF6A23EE57
:1011700086F000EE02F0DE50E926DD50EA22020E93
:10118000EF6EF6EF08F023EE86F000EE6AF0DE5028
:10119000E926DD50EA22EF500101266F2651030DAA
:1011A000F3CF27F1F4CF28F123EE86F0DECF29F13B
:1011B000DDCF2AF1275129252B6F28512A212C6FA9
:1011C0000A0E2B25D96E000E2C21DA6EFDCFDEFF24
:1011D000FECFDEFFFFCFDEFF23EE86F000EE6AF0EB
:1011E000DE50E926DD50EA22EF2A0600FC50D8A4A2
:1011F000FCEF08F0FEEF08F0C3EF08F084C326F11F
:10120000010126516B0D720EF324D96E010EF420EC
:10121000DA6E24C1DEFF25C1DDFFEEEC10F084C3E1
:1012200026F1010126516B0D6D0EF324276F010E7F
:10123000F420286F27C186F328C187F323EE86F0B8
:1012400000EE02F0DE50E926DD50EA22EF50D8A48D
:101250002CEF09F02EEF09F0BFEF09F0FC6A23EE46
:1012600086F000EE6AF0DE50E926DD50EA22EF500B
:10127000D8B43DEF09F03FEF09F0A3EF09F023EEFA
:1012800086F000EE09F0DE50E926DD50EA22EF504C
:10129000E06E23EE86F000EE08F0DE50E926DD5029
:1012A000EA22EF50D86E23EE86F000EE07F0DE5013
:1012B000E926DD50EA22EF50266F2651050023EE85
:1012C00086F000EE6AF0DE50E926DD50EA22EF06F5
:1012D00023EE86F000EE6AF0DE50E926DD50EA22C9
:1012E000EF500101266F2651030DF3CF27F1F4CF04
:1012F00028F123EE86F0DECF29F1DDCF2AF1275148
:1013000029252B6F28512A212C6F0A0E2B25D96EE7
:10131000000E2C21DA6EDECFFDFFDECFFEFFDDCF2B
:10132000FFFF23EE86F000EE6AF0DE50E926DD5086
:10133000EA22EF50D8A49FEF09F0A1EF09F05EEF89
:1013400009F0B5EF09F0050023EE86F000EE03F09A
:10135000DE50E926DD50EA22EECF26F1EDCF27F16F
:1013600026C1FDFF27C1FEFFFF6A23EE86F000EED7
:1013700002F0DE50E926DD50EA22010EEF6EF28E19
:10138000120001012B6FF29E84C324F1010124514C
:101390006B0D6D0EF324256F010EF420266F25C111
:1013A00086F326C187F323EE86F000EE02F0DE50CE
:1013B000E926DD50EA22EE04D8A4E1EF09F0E3EFDC
:1013C00009F051EF0AF023EE86F000EE09F0DE504E
:1013D000E926DD50EA22E0CFEFFF23EE86F000EEB3
:1013E00008F0DE50E926DD50EA22D8CFEFFF23EEE9
:1013F00086F000EE07F0DE50E926DD50EA22E8CF65
:10140000EFFF23EE86F000EE6AF0DE50E926DD50B5
:10141000EA22EF6A23EE86F000EE02F0DE50E926C3
:10142000DD50EA222BC1EFFF49EF0AF023EE86F0F0
:1014300000EE6AF0DE50E926DD50EA22EF500101AD
:10144000246F2451030DF3CF25F1F4CF26F123EEC1
:1014500086F0DECF27F1DDCF28F125512725296F32
:10146000265128212A6F0A0E2925D96E000E2A211D
:10147000DA6EFDCFDEFFFECFDEFFFFCFDEFF23EE15
:1014800086F000EE6AF0DE50E926DD50EA22EF2A0F
:101490000600FC50D8A44FEF0AF051EF0AF016EF07
:1014A0000AF0EEEC10F084C324F1010124516B0D1D
:1014B0006D0EF324256F010EF420266F25C186F3EF
:1014C00026C187F323EE86F000EE02F0DE50E92617
:1014D000DD50EA22EF50D8A470EF0AF072EF0AF064
:1014E00003EF0BF0FC6A23EE86F000EE6AF0DE50AC
:1014F000E926DD50EA22EF50D8B481EF0AF083EFFD
:101500000AF0E7EF0AF023EE86F000EE09F0DE5075
:10151000E926DD50EA22EF50E06E23EE86F000EE81
:1015200008F0DE50E926DD50EA22EF50D86E23EEB7
:1015300086F000EE07F0DE50E926DD50EA22EF509B
:10154000246F2451050023EE86F000EE6AF0DE5091
:10155000E926DD50EA22EF0623EE86F000EE6AF07F
:10156000DE50E926DD50EA22EF500101246F2451BC
:10157000030DF3CF25F1F4CF26F123EE86F0DECF75
:1015800027F1DDCF28F125512725296F2651282164
:101590002A6F0A0E2925D96E000E2A21DA6EDECFB7
:1015A000FDFFDECFFEFFDDCFFFFF23EE86F000EE76
:1015B0006AF0DE50E926DD50EA22EF50D8A4E3EFCE
:1015C0000AF0E5EF0AF0A2EF0AF0F9EF0AF00500E1
:1015D00023EE86F000EE03F0DE50E926DD50EA222D
:1015E000EECF24F1EDCF25F124C1FDFF25C1FEFF93
:1015F000FF6A23EE86F000EE02F0DE50E926DD50B1
:10160000EA22010EEF6EF28E12000101216F00013D
:10161000E151D56FD66BD76BD86BCB5001011F6FE3
:10162000206B010E1F27000E20231FC1D9F020C1FF
:10163000DAF00001000EDABFFF0EDB6FDC6FA3EC07
:101640000EF0D5C012F1D6C013F1D7C014F1D8C036
:1016500015F1640E0101166F000E176F000E186F62
:10166000000E196F0AEC0DF012C122F113C123F123
:1016700078EF0BF022C11FF123C120F1D890203365
:101680001F33D89020331F331F51BE6E22C11FF16C
:10169000030E1F171F3BBD501F19CF0B1F19BD6E27
:1016A00088EF0BF022C11FF123C120F1D890203325
:1016B0001F33D89020331F331F51BB6ED890233176
:1016C000206F22311F6F010E1F171F3B1F47BA509B
:1016D0001F19DF0B1F19BA6E22C11FF1010E1F1750
:1016E0001F3BBA501F19EF0B1F19BA6E88EF0BF092
:1016F00001012151010AD8B43AEF0BF0030AD8B422
:1017000052EF0BF0010AD8B488EF0BF088EF0BF022
:101710001200436E7E0E436490EF0BF092EF0BF0DD
:1017200095EF0BF0000EF3EF0BF0610E446E44509A
:10173000D96EDA6ADF50426E42507F0B3F6E3F0433
:10174000416E4250D8A4A7EF0BF0A9EF0BF0ABEF1E
:101750000BF092EF0BF042BEB0EF0BF0B2EF0BF0DC
:10176000C7EF0BF04350415CD8B0B9EF0BF0BBEFC3
:101770000BF0CEEF0BF044C037F0F4EC0BF00009A7
:10178000D8A4C5EF0BF0C7EF0BF0F1EF0BF0425010
:101790007F0B010DF350442697EF0BF04150431897
:1017A000D8A4D5EF0BF0D7EF0BF0DEEF0BF04450E1
:1017B000D96EDA6ADF8E4428F3EF0BF04450D96E0D
:1017C000DA6A4350810FDF6E4428406E4328442676
:1017D0004450D96EDA6A4350415CDF6E4050F3EFFB
:1017E0000BF097EF0BF012003750D96EDA6ADF502A
:1017F000386E375038243A6E3750D96EDA6ADF5077
:101800003B6E3A50D96EDA6ADF503C6E3C50D8A439
:101810000CEF0CF00EEF0CF011EF0CF0000E52EF8D
:101820000CF03BBE16EF0CF018EF0CF00EEF0CF0C6
:101830003CAE1DEF0CF01FEF0CF021EF0CF00EEFA3
:101840000CF03B507F0B7F0AD8A429EF0CF02BEF54
:101850000CF02DEF0CF00EEF0CF03B503C24396EE9
:101860007F0E396436EF0CF038EF0CF04CEF0CF0D3
:101870003750D96EDA6A7F0EDF6E7F0E37263C5006
:10188000010DF3503A263750D96EDA6A37503A5C78
:10189000DF6E7F0E52EF0CF03750D96EDA6A39C026
:1018A000DFFFDF501200E652E652E652FF0EE36A17
:1018B000FE0EE36AFD0EE36AE32A9BEF0CF0FD0ED9
:1018C000E3506B0D6F0EF324D96E010EF420DA6E27
:1018D000DF50D8A46EEF0CF070EF0CF099EF0CF025
:1018E000FD0EE3506B0D6E0EF324D96E010EF42045
:1018F000DA6EFF0EE3CF01F0DE50015CD8B083EF6B
:101900000CF085EF0CF099EF0CF0FD0EE3506B0D31
:101910006E0EF324D96E010EF420DA6EDF500C6ED9
:10192000FF0E0CC0E3FFFD0EE3CF01F0FE0E01C081
:10193000E3FFFD0EE32A23EE85F0FD0EE3CF01F079
:10194000DE50015CD8A0A7EF0CF0A9EF0CF05FEF20
:101950000CF0FE0EE3CF0CF00CC084F3E552E55220
:10196000E55212000001CD6BC9BFBBEF0CF0B9EF1F
:101970000CF0C1EF0CF0C86DC91FD8B0C92B010E17
:10198000CD6FCBBFC8EF0CF0C6EF0CF0CCEF0CF076
:10199000CA6DCB1FD8B0CB2BCA51CB11D8B4D3EF63
:1019A0000CF0D5EF0CF0F9EF0CF0010ECC6FDDEF81
:1019B0000CF0D890CA37CB37CC2BCBAFE2EF0CF082
:1019C000E4EF0CF0D9EF0CF0CA51C85DCB51C95906
:1019D000D8A0EDEF0CF0EFEF0CF0F3EF0CF0CA51E4
:1019E000C85FCB51C95BD890CB33CA33CC2FE4EF5F
:1019F0000CF0CD51D8B4FFEF0CF001EF0DF005EF76
:101A00000DF0C86DC91FD8B0C92BC8C0C8F0C9C077
:101A1000C9F01200000E01011A6F000E1B6F000EBC
:101A20001C6F000E1D6F1651171118111911D8B423
:101A30001CEF0DF01EEF0DF054EF0DF0010E1E6FB8
:101A400028EF0DF0D89016371737183719371E2B97
:101A500019AF2DEF0DF02FEF0DF022EF0DF0D89014
:101A60001A371B371C371D371651125D1751135982
:101A70001851145919511559D8A041EF0DF043EFE1
:101A80000DF04CEF0DF01651125F1751135B18510A
:101A9000145B1951155B1A81D89019331833173319
:101AA00016331E2F2FEF0DF01AC112F11BC113F1C7
:101AB0001CC114F11DC115F11200010E396E98EF11
:101AC0000DF039506B0D720EF324D96E010EF42017
:101AD000DA6EDE50DE10D8B470EF0DF072EF0DF05C
:101AE00097EF0DF039506B0D720EF324D96E010E85
:101AF000F420DA6EDE06000EDD5A39506B0D720EE0
:101B0000F324D96E010EF420DA6EDE50DE10D8A474
:101B10008CEF0DF08EEF0DF097EF0DF039506B0D4F
:101B20006F0EF324D96E010EF420DA6EDF6A392AC3
:101B300023EE85F0DE50395CD8A0A1EF0DF0A3EFC5
:101B40000DF061EF0DF01200F29E0001D551D96E3B
:101B5000DA6A050ED926D551E96EEA6A060EE9263B
:101B6000DE50EE18D8B4B7EF0DF0B9EF0DF0E2EF9C
:101B70000DF0D551D96EDA6A060ED926DF50D66F30
:101B8000D551D625D96EDA6A010ED926DF50D86F25
:101B9000D8516B0D6F0EF324D96E010EF420DA6E5E
:101BA000DF6AD551D96EDA6A060ED926D551E96EAB
:101BB000EA6A060EE926EF50D66FD629030BDF6ED0
:101BC000E7EF0DF0D551D96EDA6A010EDF6EF28EB5
:101BD0001200F29E0001C851D96EDA6ADE2A000EA8
:101BE000DD22C851D96EDA6A010EDBBE03EF0EF0BA
:101BF000010EDB5006E1DE04D8B001EF0EF003EF7A
:101C00000EF02AEF0EF0C851D96EDA6A070ED92607
:101C1000DF50C96FC851C925D96EDA6A020ED926BC
:101C2000DF50CA6FCA516B0D6F0EF324D96E010ECF
:101C3000F420DA6EDF6AC851D96EDA6A070ED92647
:101C4000C851E96EEA6A070EE926EF50C96FC92943
:101C5000030BDF6EF28E1200F29E0001D051030FD3
:101C6000C86FFDEC06F00001D051D96EDA6A010EA2
:101C7000D926DF50D26FD051D96EDA6ADF50D22523
:101C8000D96EDA6AD151E96EEA6ADFCFEFFFD0513F
:101C9000D96EDA6A010ED926D051E96EEA6A010ED0
:101CA000E926EF50D26F010ED225C86FC96B000E26
:101CB000C923000ECB6F030ECA6FB2EC0CF000010B
:101CC000C851DF6ED0510B0FC86FE9EC0DF0F28EEA
:101CD0001200F29E0001C0510B0FC86FFDEC06F020
:101CE0000001C051D96EDA6A020ED926DF50C26FE8
:101CF000C051D96EDA6ADF50C225D96EDA6AC1C026
:101D0000DFFFC051D96EDA6A020ED926C051E96EE2
:101D1000EA6A020EE926EF50C26F010EC225C86FB3
:101D2000C96B000EC923000ECB6F030ECA6FB2EC55
:101D30000CF00001C851DF6EC051030FC86FE9EC11
:101D40000DF0F28E1200000E0001DD6F000EDE6F4E
:101D5000000EDF6F000EE06FD5A1B1EF0EF0B3EF14
:101D60000EF0BBEF0EF0D951DD27DA51DE23DB5147
:101D7000DF23DC51E023D890D937DA37DB37DC3783
:101D8000D890D833D733D633D533D551D611D711D0
:101D9000D811D8A4CEEF0EF0D0EF0EF0ACEF0EF0CD
:101DA000DDC0D5F0DEC0D6F0DFC0D7F0E0C0D8F09F
:101DB000120099EC10F0010E376E5A0E386E1F0E9D
:101DC000396E010E05EC0FF0020E376EB60E386E4E
:101DD0001E0E396E020E05EC0FF0020E376EA20ECB
:101DE000386E1F0E396E030E05EC0FF0030E376EC2
:101DF0004E0E386E200E396E040E05EC0FF0E2EC3C
:101E000010F001EF0FF006EF00F00101016F01C1CA
:101E100002F137C003F138C005F139C006F1010104
:101E20006C6B000E086F000E076F046B0B6B096B79
:101E30000A6B21EE02F085C33AF03A506B0D6D0E3D
:101E4000F324E96E010EF420EA6E6A0EDBCFEBFF9D
:101E5000E806FCE285C3E8FF010FE8CF85F3120036
:101E6000610E376E000E396E4F0E386E395009E133
:101E7000800E385CD8A03FEF0FF041EF0FF050EF2D
:101E80000FF03750D96EDA6A7F0EDF6E7F0E37267D
:101E9000810E3824386EFF0E3920396E36EF0FF080
:101EA0003750D96EDA6A38C0DFFF37503824D96E20
:101EB000DA6ADF6A12000001D46B240ED06FD40EF0
:101EC000D16F2CEC0EF0D4C0C8F00001C96B000E2D
:101ED000CB6F640ECA6FB2EC0CF00001C851D36F27
:101EE000B10ED56F89EC05F0D3C060F0B10E0001E2
:101EF000D56FA4EC0DF0000E0101256F050E246FC7
:101F000070EC08F05BEF0FF01200030E89EC0BF0A1
:101F1000466E4550D96EDA6A46C0DFFF4550D96E2D
:101F2000DA6A010ED926DF6A4550D96EDA6A020EE6
:101F3000D926DF6A4550030F376E000E396E000E4A
:101F4000386E85EC10F045500B0F376E000E396E71
:101F5000030E386E85EC10F01200000E0CEC10F041
:101F6000B8C0C5F0B9C0C6F0C5C0C3F0C6C0C4F0A3
:101F70000001D890C433C333D890C433C333C351A2
:101F8000C76F240EC06FC7C0C1F069EC0EF0000E21
:101F90000101256F0A0E246F70EC08F0ADEF0FF011
:101FA0001200B10E0001D56F89EC05F060C0E2F0BF
:101FB000B10E0001D56FA4EC0DF0E2C0E1F0010E0E
:101FC00005EC0BF0E2C0E1F0020E05EC0BF0000EA8
:101FD0000101256F050E246F70EC08F0D1EF0FF0B2
:101FE000120001EE6DF022EE1BF0EE6ADD50D950CA
:101FF000FCE1DA50FAE100EE60F0580EEE6AE80615
:10200000FDE100EE21F0160EEE6AE806FDE1000E9D
:10201000F86E0001D9EF0EF00001BC6F0001BC4565
:10202000E846FC0B0109C26E00D000D00000C2825D
:10203000C2B21DEF10F01FEF10F018EF10F0C450F7
:102040000001BA6FC350B86FBAC0B9F01200235084
:10205000D8B42DEF10F02FEF10F039EF10F08C8680
:10206000000E0101256F640E246F70EC08F08C9651
:10207000236A020EC1EC09F027EF10F01200959EC2
:1020800083BE45EF10F048EF10F0010E49EF10F05D
:10209000000EFF0A0101006F003300338C5000195D
:1020A0007F0B00198C6E000040EF10F0120095902D
:1020B000959295949596240E456E85EC0FF0B10E91
:1020C000376EADEC10F0E8EC10F0CDEC10F0E20E55
:1020D000376E210E386ED8EC10F01200215022100D
:1020E000D8B475EF10F077EF10F084EF10F002D84D
:1020F00084EF10F00500FA6E2150FD6E2250FE6E46
:10210000F850FF6EFA50120012003750D96EDA6A9A
:1021100038C0DEFF39C0DDFF3750D96EDA6A060EEF
:10212000D926DF6A3750D96EDA6A070ED926DF6AF8
:102130001200000EE8CF85F3000EE8CF84F3000E06
:10214000376E7E0E386E200E396E000E05EC0FF0E5
:10215000BFEC10F030EC0FF012003750D96EDA6A95
:10216000010EDF6E3750D96EDA6A050ED926DF6AA6
:102170003750D96EDA6A060ED926DF6A1200F28C61
:10218000F28AF294D59AD596D550F80B0509D56EFA
:10219000000ED76E000ED66E1200F90ECB6E070E33
:1021A000CA6E94940C0EBD6E94920C0EBA6E120010
:1021B00037C021F038C022F09380F19EF18CF2926A
:1021C000F288120057EC10F0F28EF4EC10F01200CE
:1021D000C26A0E0EC16EAA0EC06E120053EC0CF055
:0C21E0001200010E236E1200D58E1200BA
:00000001FF
